{
  "contractName": "DHTStateTable",
  "abi": [
    {
      "inputs": [],
      "payable": false,
      "stateMutability": "nonpayable",
      "type": "constructor",
      "signature": "constructor"
    },
    {
      "anonymous": false,
      "inputs": [
        {
          "indexed": false,
          "name": "nodeAddress",
          "type": "address"
        },
        {
          "indexed": false,
          "name": "pubKey",
          "type": "bytes32"
        },
        {
          "indexed": false,
          "name": "certificate",
          "type": "bytes32"
        },
        {
          "indexed": false,
          "name": "ip",
          "type": "bytes32"
        },
        {
          "indexed": false,
          "name": "port",
          "type": "uint256"
        },
        {
          "indexed": false,
          "name": "nonce",
          "type": "uint256"
        }
      ],
      "name": "Onboard",
      "type": "event",
      "signature": "0xc3e71176ae4728adfe5b21d38bf7cd0f8d8a4702e6f15fe71e3f85ddb7749db0"
    },
    {
      "anonymous": false,
      "inputs": [
        {
          "indexed": false,
          "name": "nodeAddress",
          "type": "address"
        }
      ],
      "name": "SafeOffboard",
      "type": "event",
      "signature": "0x56da62cb14075047178cff31184be899129b83506fb0b1fe540a31b94fc2ec33"
    },
    {
      "anonymous": false,
      "inputs": [
        {
          "indexed": false,
          "name": "nodeAddress",
          "type": "address"
        }
      ],
      "name": "OffboardPoll",
      "type": "event",
      "signature": "0x0f6edb819eb25f1e80b8ac7d740ea1be6bd22ac0ed6f6551966ffb6e0eb92d72"
    },
    {
      "constant": false,
      "inputs": [
        {
          "name": "inputBytes",
          "type": "bytes"
        },
        {
          "name": "inputSig",
          "type": "bytes"
        }
      ],
      "name": "startOnboard",
      "outputs": [],
      "payable": true,
      "stateMutability": "payable",
      "type": "function",
      "signature": "0x99879ef8"
    },
    {
      "constant": false,
      "inputs": [],
      "name": "finalizeOnboard",
      "outputs": [],
      "payable": false,
      "stateMutability": "nonpayable",
      "type": "function",
      "signature": "0x94c9c8f5"
    },
    {
      "constant": false,
      "inputs": [],
      "name": "safeOffboard",
      "outputs": [],
      "payable": false,
      "stateMutability": "nonpayable",
      "type": "function",
      "signature": "0x65ac9b0a"
    },
    {
      "constant": false,
      "inputs": [
        {
          "name": "nodeAddress",
          "type": "address"
        }
      ],
      "name": "beginOffboardVote",
      "outputs": [],
      "payable": false,
      "stateMutability": "nonpayable",
      "type": "function",
      "signature": "0x3de4a2ec"
    },
    {
      "constant": false,
      "inputs": [
        {
          "name": "nodeAddress",
          "type": "address"
        },
        {
          "name": "remove",
          "type": "bool"
        }
      ],
      "name": "offboardVote",
      "outputs": [],
      "payable": false,
      "stateMutability": "nonpayable",
      "type": "function",
      "signature": "0x3fd53565"
    },
    {
      "constant": false,
      "inputs": [
        {
          "name": "nodeAddress",
          "type": "address"
        }
      ],
      "name": "finalizeOffboardVote",
      "outputs": [],
      "payable": false,
      "stateMutability": "nonpayable",
      "type": "function",
      "signature": "0xca523ce7"
    },
    {
      "constant": true,
      "inputs": [
        {
          "name": "nodeAddress",
          "type": "address"
        }
      ],
      "name": "getNodeState",
      "outputs": [
        {
          "name": "",
          "type": "address"
        },
        {
          "name": "",
          "type": "bytes32"
        },
        {
          "name": "",
          "type": "bytes32"
        },
        {
          "name": "",
          "type": "bytes32"
        },
        {
          "name": "",
          "type": "uint256"
        },
        {
          "name": "",
          "type": "uint256"
        },
        {
          "name": "",
          "type": "uint8"
        }
      ],
      "payable": false,
      "stateMutability": "view",
      "type": "function",
      "signature": "0x229bb823"
    },
    {
      "constant": true,
      "inputs": [],
      "name": "getNumNodes",
      "outputs": [
        {
          "name": "",
          "type": "uint256"
        }
      ],
      "payable": false,
      "stateMutability": "view",
      "type": "function",
      "signature": "0x62bc2ffa"
    }
  ],
  "bytecode": "0x608060405234801561001057600080fd5b50600080819055506000600181905550612710600281905550612056806100386000396000f3fe60806040526004361061008e576000357c0100000000000000000000000000000000000000000000000000000000900463ffffffff168063229bb823146100935780633de4a2ec1461015c5780633fd53565146101ad57806362bc2ffa1461020a57806365ac9b0a1461023557806394c9c8f51461024c57806399879ef814610263578063ca523ce7146103b5575b600080fd5b34801561009f57600080fd5b506100e2600480360360208110156100b657600080fd5b81019080803573ffffffffffffffffffffffffffffffffffffffff169060200190929190505050610406565b604051808873ffffffffffffffffffffffffffffffffffffffff1673ffffffffffffffffffffffffffffffffffffffff16815260200187815260200186815260200185815260200184815260200183815260200182600481111561014257fe5b60ff16815260200197505050505050505060405180910390f35b34801561016857600080fd5b506101ab6004803603602081101561017f57600080fd5b81019080803573ffffffffffffffffffffffffffffffffffffffff1690602001909291905050506105ca565b005b3480156101b957600080fd5b50610208600480360360408110156101d057600080fd5b81019080803573ffffffffffffffffffffffffffffffffffffffff16906020019092919080351515906020019092919050505061090a565b005b34801561021657600080fd5b5061021f610a54565b6040518082815260200191505060405180910390f35b34801561024157600080fd5b5061024a610a5e565b005b34801561025857600080fd5b50610261610bf3565b005b6103b36004803603604081101561027957600080fd5b810190808035906020019064010000000081111561029657600080fd5b8201836020820111156102a857600080fd5b803590602001918460018302840111640100000000831117156102ca57600080fd5b91908080601f016020809104026020016040519081016040528093929190818152602001838380828437600081840152601f19601f8201169050808301925050505050505091929192908035906020019064010000000081111561032d57600080fd5b82018360208201111561033f57600080fd5b8035906020019184600183028401116401000000008311171561036157600080fd5b91908080601f016020809104026020016040519081016040528093929190818152602001838380828437600081840152601f19601f820116905080830192505050505050509192919290505050611286565b005b3480156103c157600080fd5b50610404600480360360208110156103d857600080fd5b81019080803573ffffffffffffffffffffffffffffffffffffffff1690602001909291905050506118bc565b005b600080600080600080600087600360008a73ffffffffffffffffffffffffffffffffffffffff1673ffffffffffffffffffffffffffffffffffffffff16815260200190815260200160002060000154600360008b73ffffffffffffffffffffffffffffffffffffffff1673ffffffffffffffffffffffffffffffffffffffff16815260200190815260200160002060010154600360008c73ffffffffffffffffffffffffffffffffffffffff1673ffffffffffffffffffffffffffffffffffffffff16815260200190815260200160002060020154600360008d73ffffffffffffffffffffffffffffffffffffffff1673ffffffffffffffffffffffffffffffffffffffff16815260200190815260200160002060030154600360008e73ffffffffffffffffffffffffffffffffffffffff1673ffffffffffffffffffffffffffffffffffffffff16815260200190815260200160002060060154600360008f73ffffffffffffffffffffffffffffffffffffffff1673ffffffffffffffffffffffffffffffffffffffff16815260200190815260200160002060080160009054906101000a900460ff169650965096509650965096509650919395979092949650565b33600260048111156105d857fe5b600360003373ffffffffffffffffffffffffffffffffffffffff1673ffffffffffffffffffffffffffffffffffffffff16815260200190815260200160002060080160009054906101000a900460ff16600481111561063357fe5b1415156106ce576040517f08c379a00000000000000000000000000000000000000000000000000000000081526004018080602001828103825260268152602001807f746865206e6f6465206973206e6f7420696e20746865206f6e626f617264656481526020017f207374617465000000000000000000000000000000000000000000000000000081525060400191505060405180910390fd5b81600260048111156106dc57fe5b600360003373ffffffffffffffffffffffffffffffffffffffff1673ffffffffffffffffffffffffffffffffffffffff16815260200190815260200160002060080160009054906101000a900460ff16600481111561073757fe5b1415156107d2576040517f08c379a00000000000000000000000000000000000000000000000000000000081526004018080602001828103825260268152602001807f746865206e6f6465206973206e6f7420696e20746865206f6e626f617264656481526020017f207374617465000000000000000000000000000000000000000000000000000081525060400191505060405180910390fd5b6060604051908101604052808473ffffffffffffffffffffffffffffffffffffffff1681526020016000815260200142815250600460008573ffffffffffffffffffffffffffffffffffffffff1673ffffffffffffffffffffffffffffffffffffffff16815260200190815260200160002060008201518160000160006101000a81548173ffffffffffffffffffffffffffffffffffffffff021916908373ffffffffffffffffffffffffffffffffffffffff16021790555060208201518160010155604082015181600201559050507f0f6edb819eb25f1e80b8ac7d740ea1be6bd22ac0ed6f6551966ffb6e0eb92d7283604051808273ffffffffffffffffffffffffffffffffffffffff1673ffffffffffffffffffffffffffffffffffffffff16815260200191505060405180910390a1505050565b814262093a80600460008473ffffffffffffffffffffffffffffffffffffffff1673ffffffffffffffffffffffffffffffffffffffff1681526020019081526020016000206002015401101515156109f0576040517f08c379a000000000000000000000000000000000000000000000000000000000815260040180806020018281038252602d8152602001807f63616e6e6f7420766f7465206f6e63652074686520766f74696e67207065726981526020017f6f6420686173207061737365640000000000000000000000000000000000000081525060400191505060405180910390fd5b600115158215151415610a4f576001600460008573ffffffffffffffffffffffffffffffffffffffff1673ffffffffffffffffffffffffffffffffffffffff168152602001908152602001600020600101600082825401925050819055505b505050565b6000600154905090565b60026004811115610a6b57fe5b600360003373ffffffffffffffffffffffffffffffffffffffff1673ffffffffffffffffffffffffffffffffffffffff16815260200190815260200160002060080160009054906101000a900460ff166004811115610ac657fe5b141515610ad257600080fd5b60038060003373ffffffffffffffffffffffffffffffffffffffff1673ffffffffffffffffffffffffffffffffffffffff16815260200190815260200160002060080160006101000a81548160ff02191690836004811115610b3057fe5b02179055507f56da62cb14075047178cff31184be899129b83506fb0b1fe540a31b94fc2ec3333604051808273ffffffffffffffffffffffffffffffffffffffff1673ffffffffffffffffffffffffffffffffffffffff16815260200191505060405180910390a1600180600082825403925050819055503373ffffffffffffffffffffffffffffffffffffffff166108fc6002549081150290604051600060405180830381858888f19350505050158015610bf0573d6000803e3d6000fd5b50565b60016004811115610c0057fe5b600360003373ffffffffffffffffffffffffffffffffffffffff1673ffffffffffffffffffffffffffffffffffffffff16815260200190815260200160002060080160009054906101000a900460ff166004811115610c5b57fe5b141515610cf6576040517f08c379a000000000000000000000000000000000000000000000000000000000815260040180806020018281038252603f8152602001807f63616e6e6f742066696e616c697a65206f6e626f617264696e67206f6620612081526020017f6e6f6465207468617420697320696e207468652077726f6e672073746174650081525060400191505060405180910390fd5b436005600360003373ffffffffffffffffffffffffffffffffffffffff1673ffffffffffffffffffffffffffffffffffffffff168152602001908152602001600020600701540111151515610dd9576040517f08c379a00000000000000000000000000000000000000000000000000000000081526004018080602001828103825260358152602001807f63616e6e6f742066696e616c697a65206f6e626f617264696e6720756e74696c81526020017f203520626c6f636b73206861766520706173736564000000000000000000000081525060400191505060405180910390fd5b600060024340600360003373ffffffffffffffffffffffffffffffffffffffff1673ffffffffffffffffffffffffffffffffffffffff1681526020019081526020016000206005015460405160200180838152602001828152602001925050506040516020818303038152906040526040518082805190602001908083835b602083101515610e7d5780518252602082019150602081019050602083039250610e58565b6001836020036101000a038019825116818451168082178552505050505050905001915050602060405180830381855afa158015610ebf573d6000803e3d6000fd5b5050506040513d6020811015610ed457600080fd5b810190808051906020019092919050505090506002600360003373ffffffffffffffffffffffffffffffffffffffff1673ffffffffffffffffffffffffffffffffffffffff168152602001908152602001600020600401548260405160200180838152602001828152602001925050506040516020818303038152906040526040518082805190602001908083835b602083101515610f885780518252602082019150602081019050602083039250610f63565b6001836020036101000a038019825116818451168082178552505050505050905001915050602060405180830381855afa158015610fca573d6000803e3d6000fd5b5050506040513d6020811015610fdf57600080fd5b810190808051906020019092919050505060019004600360003373ffffffffffffffffffffffffffffffffffffffff1673ffffffffffffffffffffffffffffffffffffffff168152602001908152602001600020600601819055506002600360003373ffffffffffffffffffffffffffffffffffffffff1673ffffffffffffffffffffffffffffffffffffffff16815260200190815260200160002060080160006101000a81548160ff0219169083600481111561109957fe5b0217905550600180600082825401925050819055507fc3e71176ae4728adfe5b21d38bf7cd0f8d8a4702e6f15fe71e3f85ddb7749db033600360003373ffffffffffffffffffffffffffffffffffffffff1673ffffffffffffffffffffffffffffffffffffffff16815260200190815260200160002060000154600360003373ffffffffffffffffffffffffffffffffffffffff1673ffffffffffffffffffffffffffffffffffffffff16815260200190815260200160002060010154600360003373ffffffffffffffffffffffffffffffffffffffff1673ffffffffffffffffffffffffffffffffffffffff16815260200190815260200160002060020154600360003373ffffffffffffffffffffffffffffffffffffffff1673ffffffffffffffffffffffffffffffffffffffff16815260200190815260200160002060030154600360003373ffffffffffffffffffffffffffffffffffffffff1673ffffffffffffffffffffffffffffffffffffffff16815260200190815260200160002060060154604051808773ffffffffffffffffffffffffffffffffffffffff1673ffffffffffffffffffffffffffffffffffffffff168152602001868152602001858152602001848152602001838152602001828152602001965050505050505060405180910390a150565b6000600481111561129357fe5b600360003373ffffffffffffffffffffffffffffffffffffffff1673ffffffffffffffffffffffffffffffffffffffff16815260200190815260200160002060080160009054906101000a900460ff1660048111156112ee57fe5b141515611389576040517f08c379a00000000000000000000000000000000000000000000000000000000081526004018080602001828103825260308152602001807f63616e6e6f74206f6e626f6172642061206e6f6465207468617420697320616c81526020017f726561647920696e20746865204448540000000000000000000000000000000081525060400191505060405180910390fd5b6002543410151515611429576040517f08c379a00000000000000000000000000000000000000000000000000000000081526004018080602001828103825260258152602001807f63616e6e6f74206f6e626f617264207769746820696e73756666696369656e7481526020017f20626f6e6400000000000000000000000000000000000000000000000000000081525060400191505060405180910390fd5b6000828051906020012090506114488282611a4a90919063ffffffff16565b73ffffffffffffffffffffffffffffffffffffffff163373ffffffffffffffffffffffffffffffffffffffff161415156114ea576040517f08c379a000000000000000000000000000000000000000000000000000000000815260040180806020018281038252601d8152602001807f696e76616c6964206365727469666963617465207369676e617475726500000081525060200191505060405180910390fd5b60606114fd6114f885611b7f565b611bad565b9050600061152a61152583600081518110151561151657fe5b90602001906020020151611c8a565b611d18565b9050600061155761155284600181518110151561154357fe5b90602001906020020151611c8a565b611d18565b9050600061158461157f85600281518110151561157057fe5b90602001906020020151611c8a565b611d18565b905060006115a985600381518110151561159a57fe5b90602001906020020151611d3c565b90506101206040519081016040528085815260200184815260200183815260200182815260200160028685856040516020018084815260200183815260200182815260200193505050506040516020818303038152906040526040518082805190602001908083835b6020831015156116375780518252602082019150602081019050602083039250611612565b6001836020036101000a038019825116818451168082178552505050505050905001915050602060405180830381855afa158015611679573d6000803e3d6000fd5b5050506040513d602081101561168e57600080fd5b810190808051906020019092919050505081526020016002434060005460405160200180838152602001828152602001925050506040516020818303038152906040526040518082805190602001908083835b60208310151561170657805182526020820191506020810190506020830392506116e1565b6001836020036101000a038019825116818451168082178552505050505050905001915050602060405180830381855afa158015611748573d6000803e3d6000fd5b5050506040513d602081101561175d57600080fd5b81019080805190602001909291905050508152602001600081526020014381526020016001600481111561178d57fe5b815250600360003373ffffffffffffffffffffffffffffffffffffffff1673ffffffffffffffffffffffffffffffffffffffff168152602001908152602001600020600082015181600001556020820151816001015560408201518160020155606082015181600301556080820151816004015560a0820151816005015560c0820151816006015560e082015181600701556101008201518160080160006101000a81548160ff0219169083600481111561184457fe5b0217905550905050600160008082825401925050819055506002543411156118b2573373ffffffffffffffffffffffffffffffffffffffff166108fc60025434039081150290604051600060405180830381858888f193505050501580156118b0573d6000803e3d6000fd5b505b5050505050505050565b4262093a80600460008473ffffffffffffffffffffffffffffffffffffffff1673ffffffffffffffffffffffffffffffffffffffff168152602001908152602001600020600201540110151561197a576040517f08c379a000000000000000000000000000000000000000000000000000000000815260040180806020018281038252601b8152602001807f54686520706f6c6c206973207374696c6c206f63637572696e672e000000000081525060200191505060405180910390fd5b600260015481151561198857fe5b04600460008373ffffffffffffffffffffffffffffffffffffffff1673ffffffffffffffffffffffffffffffffffffffff168152602001908152602001600020600101541115611a47576004600360008373ffffffffffffffffffffffffffffffffffffffff1673ffffffffffffffffffffffffffffffffffffffff16815260200190815260200160002060080160006101000a81548160ff02191690836004811115611a3157fe5b0217905550600180600082825403925050819055505b50565b6000806000808560405160200180807f19457468657265756d205369676e6564204d6573736167653a0a333200000000815250601c0182815260200191505060405160208183030381529060405280519060200120955060418551141515611ab85760009350505050611b79565b6020850151925060408501519150606085015160001a9050601b8160ff161015611ae357601b810190505b601b8160ff1614158015611afb5750601c8160ff1614155b15611b0c5760009350505050611b79565b60018682858560405160008152602001604052604051808581526020018460ff1660ff1681526020018381526020018281526020019450505050506020604051602081039080840390855afa158015611b69573d6000803e3d6000fd5b5050506020604051035193505050505b92915050565b611b87611ff6565b600060208301905060408051908101604052808451815260200182815250915050919050565b6060611bb882611d92565b1515611bc357600080fd5b6000611bce83611de0565b905080604051908082528060200260200182016040528015611c0a57816020015b611bf7612010565b815260200190600190039081611bef5790505b5091506000611c1c8460200151611e51565b8460200151019050600080600090505b83811015611c8157611c3d83611eda565b91506040805190810160405280838152602001848152508582815181101515611c6257fe5b9060200190602002018190525081830192508080600101915050611c2c565b50505050919050565b606060008260000151111515611c9f57600080fd5b6000611cae8360200151611e51565b905060008184600001510390506060816040519080825280601f01601f191660200182016040528015611cf05781602001600182028038833980820191505090505b5090506000816020019050611d0c848760200151018285611f8d565b81945050505050919050565b60008082511415611d2f5760006001029050611d37565b602082015190505b919050565b6000808260000151111515611d5057600080fd5b6000611d5f8360200151611e51565b9050600081846000015103905060008285602001510190506000826020036101000a825104905080945050505050919050565b60008082600001511415611da95760009050611ddb565b60008083602001519050805160001a915060c060ff168260ff161015611dd457600092505050611ddb565b6001925050505b919050565b60008082600001511415611df75760009050611e4c565b60008090506000611e0b8460200151611e51565b84602001510190506000846000015185602001510190505b80821015611e4557611e3482611eda565b820191508280600101935050611e23565b8293505050505b919050565b600080825160001a9050608060ff16811015611e71576000915050611ed5565b60b860ff16811080611e96575060c060ff168110158015611e95575060f860ff1681105b5b15611ea5576001915050611ed5565b60c060ff16811015611ec55760018060b80360ff16820301915050611ed5565b60018060f80360ff168203019150505b919050565b600080825160001a9050608060ff16811015611efa576001915050611f88565b60b860ff16811015611f18576001608060ff16820301915050611f88565b60c060ff16811015611f485760b78103600184019350806020036101000a84510460018201810193505050611f86565b60f860ff16811015611f6657600160c060ff16820301915050611f88565b60f78103600184019350806020036101000a845104600182018101935050505b505b919050565b6000811415611f9b57611ff1565b5b602060ff1681101515611fcd5782518252602060ff1683019250602060ff1682019150602060ff1681039050611f9c565b6000600182602060ff16036101000a03905080198451168184511681811785525050505b505050565b604080519081016040528060008152602001600081525090565b60408051908101604052806000815260200160008152509056fea165627a7a7230582049f42061d7a1ab714d0322925b6b0ab2758de4a7de6144369fabc06d9eca65690029",
  "source": "pragma solidity ^0.5.0;\n\nimport \"solidity-rlp/contracts/RLPReader.sol\";\n\nimport \"./libraries/ECDSA.sol\";\n\ncontract DHTStateTable {\n    using ECDSA for bytes32;\n    using RLPReader for bytes;\n    using RLPReader for RLPReader.RLPItem;\n\n    uint256 gtc;\n    uint256 numNodes;\n    uint256 minBond;\n\n    enum NodeState {NonExistent, OnboardPending, Onboarded, Offboarded, Banned}\n\n    event Onboard(address nodeAddress, bytes32 pubKey, bytes32 certificate, bytes32 ip, uint256 port, uint256 nonce);\n    event SafeOffboard(address nodeAddress);\n    event OffboardPoll(address nodeAddress);\n\n    struct node {\n        bytes32 pubKey;\n        bytes32 certificate;\n        bytes32 ip;\n        uint256 port;\n\n        bytes32 h1;\n        bytes32 seed;\n        uint256 nonce;\n\n        uint creationBlock;\n\n        NodeState state;\n    }\n    mapping(address => node) nodes;\n\n    struct offBoardPoll {\n        address nodeAddress;\n        uint256 numVotesForRemove;\n\n        uint256 createdAt;\n    }\n    mapping(address => offBoardPoll) polls;\n\n    // A node can be begin onboarding only if it DNE\n    modifier canStartOnboard() {\n        require(nodes[msg.sender].state == NodeState.NonExistent, \"cannot onboard a node that is already in the DHT\");\n        require(msg.value >= minBond, \"cannot onboard with insufficient bond\");\n        _;\n    }\n\n    // A node can be onboarded only after 5 blocks.\n    modifier canFinalizeOnboard() {\n        require(nodes[msg.sender].state == NodeState.OnboardPending, \"cannot finalize onboarding of a node that is in the wrong state\");\n        require(nodes[msg.sender].creationBlock + 5 <= block.number, \"cannot finalize onboarding until 5 blocks have passed\");\n        _;\n    }\n\n    // If a node is Onboarded\n    modifier isOnboarded(address nodeAddress) {\n        require(nodes[msg.sender].state == NodeState.Onboarded, \"the node is not in the onboarded state\");\n        _;\n    }\n\n    // If a poll is still occuring\n    modifier canVote(address nodeAddress) {\n        require(polls[nodeAddress].createdAt + 1 weeks >= block.timestamp, \"cannot vote once the voting period has passed\");\n        _;\n    }\n\n    // Contract constructor.\n    constructor()\n        public\n    {\n        gtc = 0;\n        numNodes = 0;\n        minBond = 10000;\n    }\n\n    function bytesToBytes32(bytes memory source) internal pure returns (bytes32 result) {\n        if (source.length == 0) {\n            return 0x0;\n        }\n\n        assembly {\n            result := mload(add(source, 32))\n        }\n    }\n\n    // Begin the onboarding process.\n    // @param pubKey            node's public key\n    // @param certificate       certificate proving ownership of the public key\n    // @param ip                node's ip address\n    // @param port              node's port number\n    function startOnboard(bytes memory inputBytes, bytes memory inputSig)\n        canStartOnboard\n        payable\n        public\n    {\n        // Verify the input signature was signed by the caller\n        bytes32 inputHash = keccak256(inputBytes);\n        require(msg.sender == inputHash.recover(inputSig), \"invalid certificate signature\");\n\n        // Decode the inputs\n        RLPReader.RLPItem[] memory inputs = inputBytes.toRlpItem().toList();\n        bytes32 pubKey = bytesToBytes32(inputs[0].toBytes());\n        bytes32 certificate = bytesToBytes32(inputs[1].toBytes());\n        bytes32 ip = bytesToBytes32(inputs[2].toBytes());\n        uint256 port = inputs[3].toUint();\n\n        nodes[msg.sender] = node({\n            pubKey: pubKey,\n            certificate: certificate,\n            ip: ip,\n            port: port,\n\n            h1: sha256(abi.encodePacked(pubKey, ip, port)),\n            seed: sha256(abi.encodePacked(blockhash(block.number), gtc)),\n            nonce: 0,\n\n            creationBlock: block.number,\n\n            state: NodeState.OnboardPending\n        });\n        gtc += 1;\n\n        if (msg.value > minBond) {\n            msg.sender.transfer(msg.value - minBond);\n        }\n    }\n\n    // Finalize the onboarding process, where the node is assigned a nonce and a shard.\n    // Finalization occurs 5 blocks after onboarding begins to prevent the predictability of pseudorandom nonce generation.\n    function finalizeOnboard()\n        canFinalizeOnboard\n        public\n    {\n        bytes32 rng = sha256(abi.encodePacked(blockhash(block.number), nodes[msg.sender].seed));\n        nodes[msg.sender].nonce = uint256(sha256(abi.encodePacked(nodes[msg.sender].h1, rng)));\n        nodes[msg.sender].state = NodeState.Onboarded;\n\n        numNodes += 1;\n\n        emit Onboard(msg.sender, nodes[msg.sender].pubKey, nodes[msg.sender].certificate, nodes[msg.sender].ip, nodes[msg.sender].port, nodes[msg.sender].nonce);\n    }\n\n    // A node can safely off board itself.\n    function safeOffboard()\n        public\n    {\n        require(nodes[msg.sender].state == NodeState.Onboarded);\n        nodes[msg.sender].state = NodeState.Offboarded;\n        emit SafeOffboard(msg.sender);\n\n        numNodes -= 1;\n        msg.sender.transfer(minBond);\n    }\n\n    // Begin the voting process to forcibly remove a node from the DHT.\n    // Only other nodes can begin this process.\n    // @param node             the node to be offboarded.\n    function beginOffboardVote(address nodeAddress)\n        isOnboarded(msg.sender)\n        isOnboarded(nodeAddress)\n        public\n    {\n        polls[nodeAddress] = offBoardPoll({\n            nodeAddress: nodeAddress,\n            numVotesForRemove: 0,\n            createdAt: block.timestamp\n        });\n\n        emit OffboardPoll(nodeAddress);\n    }\n\n    // Nodes can vote to forcibly remove a node from the DHT within a week.\n    // @param node             the node to be offboarded\n    // @param remove           whether this node should be forcibly removed\n    function offboardVote(address nodeAddress, bool remove)\n        canVote(nodeAddress)\n        public\n    {\n        if (remove == true) {\n            polls[nodeAddress].numVotesForRemove += 1;\n        }\n    }\n\n    // Finalize the voting process to forcibly remove a node from the DHT.\n    // The node will be forcibly removed from the DHT if enough votes are placed.\n    // @param node             the node to be offboarded.\n    function finalizeOffboardVote(address nodeAddress) public\n    {\n        require(polls[nodeAddress].createdAt + 1 weeks < block.timestamp, \"The poll is still occuring.\");\n        if (polls[nodeAddress].numVotesForRemove > numNodes / 2) {\n            nodes[nodeAddress].state = NodeState.Banned;\n            numNodes -= 1;\n        }\n    }\n\n    // Returns Node's State which has the following fields:\n    //\n    // address nodeAddress\n    // bytes32 pubKey\n    // bytes32 certificate\n    // bytes32 ip\n    // uint256 port\n    // uint256 nonce\n    function getNodeState(address nodeAddress) public view returns(address, bytes32, bytes32, bytes32, uint256, uint256, NodeState) {\n        return (nodeAddress, nodes[nodeAddress].pubKey, nodes[nodeAddress].certificate, nodes[nodeAddress].ip, nodes[nodeAddress].port, nodes[nodeAddress].nonce, nodes[nodeAddress].state);\n    }\n\n    function getNumNodes() public view returns(uint256) {\n        return numNodes;\n    }\n}\n",
  "sourcePath": "/Users/kevinchang/ExaSys/DHTStateTable/contracts/DHTStateTable.sol",
  "compiler": {
    "name": "solc",
    "version": "0.5.0+commit.1d4f565a.Emscripten.clang"
  },
  "schemaVersion": "3.0.1",
  "updatedAt": "2019-01-29T01:38:16.919Z",
  "devdoc": {
    "methods": {}
  },
  "userdoc": {
    "methods": {}
  }
}